:020000040000FA
:10000000C81DFF1FD50F0000A10D0000D95700002B
:10001000A30D0000A70D0000AB0D000000000000C4
:10002000000000000000000000000000AF0D000014
:10003000B10D0000000000005F5700000506000041
:10004000EF0F0000EF0F0000EF0F0000EF0F0000B8
:10005000EF0F0000EF0F0000EF0F0000EF0F0000A8
:10006000EF0F0000EF0F0000EF0F0000EF0F000098
:10007000EF0F0000EF0F0000EF0F0000EF0F000088
:10008000EF0F0000EF0F0000EF0F0000EF0F000078
:10009000EF0F0000EF0F0000EF0F0000EF0F000068
:1000A000EF0F0000EF0F0000EF0F0000EF0F000058
:1000B000EF0F0000EF0F0000EF0F0000EF0F000048
:1000C000EF0F0000EF0F0000EF0F0000EF0F000038
:1000D000EF0F0000EF0F0000EF0F0000EF0F000028
:1000E000EF0F0000EF0F0000EF0F0000EF0F000018
:1000F000EF0F0000B30D0000EF0F0000B50D000082
:10010000EF0F0000B70D0000EF0F0000B90D000069
:10011000EF0F0000BB0D0000EF0F0000CD0D000041
:10012000EF0F0000EF0F0000EF0F0000EF0F0000D7
:10013000EF0F0000EF0F0000EF0F0000EF0F0000C7
:10014000EF0F0000EF0F0000EF0F0000EF0F0000B7
:10015000EF0F0000EF0F0000EF0F0000EF0F0000A7
:10040000FFFFFFFFFFFFFFFFFFFFFFFFFEFFFFFFFD
:1004100000F002F800F065F80AA090E8000C8244B1
:100420008344AAF10107DA4501D100F05AF8AFF28E
:10043000090EBAE80F0013F0010F18BFFB1A43F0C2
:100440000103184784B50000A4B500000A444FF02A
:10045000000C10F8013B13F0070408BF10F8014B23
:100460001D1108BF10F8015B641E05D010F8016B68
:10047000641E01F8016BF9D113F0080F1EBF10F8CC
:10048000014BAD1C0C1B09D16D1E58BF01F801CBEF
:10049000FAD505E014F8016B01F8016B6D1EF9D572
:1004A0009142D6D370470000002300240025002687
:1004B000103A28BF78C1FBD8520728BF30C148BFC7
:1004C0000B6070471FB50AF087FB0AF04BFB040076
:1004D000002000210AF06AFB401C60601FBD10B5BF
:1004E00010BD0AF01AFB1146FFF7ECFF00F051F8BF
:1004F0000AF04AFB03B4FFF7F2FF03BC0AF04EFB1D
:1005000070471CB5142008210B020022CDE9001011
:10051000AFF2130104A004F0CFFB044614B120464F
:1005200004F068FB00201CBD696E697400000000C7
:1005300004460D461AA003F035F9214622A003F027
:1005400031F9294625A003F02DF900BFFEE710B5CB
:1005500000F060F803F056F900F05CFD03F027FFAF
:1005600004F0EEFF4FF00051214803F0ADFA04F023
:10057000C9F800F0D1FDFFF7C4FF0AF029F81DA06B
:1005800009F0BFFB04F0E8FF00F0E2FF04F0D6F84A
:1005900010BD10B505F0CCF8FFF7D9FF002010BD55
:1005A0000A0D2057726F6E6720706172616D6574FD
:1005B00065722076616C7565206465746563746529
:1005C00064206F6E0D0A000020202020202020666D
:1005D000696C65202025730D0A0000002020202072
:1005E0002020206C696E65202025640D0A00000023
:1005F000C81DFF1F756172743500000000201E4980
:100600000860704710B502F0FBFC00F012FD02F02C
:1006100006FD10BD70B5FFF7F1FF184800684FF4F4
:100620007A72B0FBF2F1B1F1807F00D31EE021F0CD
:100630007F40401E4FF0E022506150170F220028EB
:1006400008DA13071D0E0C4B103300F00F04241FA3
:100650001D5503E013071C0E094B1C5400BF00205E
:100660004FF0E02290610720106100BF00F050FBC6
:1006700004A003F00CF970BD08ED00E01C00FF1FA2
:1006800000E400E0756172743500000070B5044646
:10069000E56BE08A10F0100F17D1E08A10F4807F2C
:1006A00009D040220021A86802F0FFFC0020A968C0
:1006B0000864A96848644FF4E131286800F047FAFB
:1006C0006860E08A40F01000E082002070BD0246C1
:1006D000002070470146002070472DE9F05F8046FA
:1006E0008B4616461F4635464FF00009D8F83C4069
:1006F000B8F8160010F4807F29D025E005F018F82E
:100700008246A068006CA168496C884212D0A0683B
:10071000016C405C05F8010B7F1EA068006C401C5A
:10072000A1680864A068006C402809D30020A16873
:10073000086405E06FF00309504604F0FDFF05E092
:10074000504604F0F9FF00BF002FD7D10DE009E0BB
:1007500003E06068C07928706D1C6068007910F053
:10076000200FF6D1A81BB842F2D3484602F07CFC19
:10077000A81BBDE8F09F2DE9F05F07468B46904629
:100780001E464FF000094446FD6BF88A10F4806F56
:100790000BD0CA468B23804A80A181A003F002F8C7
:1007A00000BFBAF1000FFCD02CE0F88A10F0400F27
:1007B0001AD016E020780A2808D100BF68680079AE
:1007C00010F0800FFAD00D206968C87100BF68680A
:1007D000007910F0800FFAD020786968C871641C25
:1007E000761E002EE6D10DE00AE000BF68680079B1
:1007F00010F0800FFAD020786968C871641C761EEA
:10080000002EF2D1484602F02FFCA4EB0800BDE810
:10081000F09F2DE9F04104460D46904654B900275B
:10082000B823674A67A15EA002F0BCFF00BF002F9B
:10083000FDD000BFE66B012D06D0022D09D1E08A64
:1008400040F02000E08204E0E08A20F02000E08216
:1008500000BF00BF0020BDE8F0812DE9F041044653
:100860000F4615461E4664B94FF00008D123594A79
:1008700059A14BA002F096FF00BFB8F1000FFCD0C9
:1008800000BF15F4007F02D115F4806F0CD04FF03B
:100890000008D6234F4A41A141A002F083FF00BFC8
:1008A000B8F1000FFCD000BF00202075E06120628D
:1008B0004E4860624E48A0624E48E0624E48206357
:1008C0004E4860634E48A063E663A8B240F003025E
:1008D0003946204600F0F4FBBDE8F08170B50546CE
:1008E000EC6BE88A10F4807F0AD10026EE23454A9B
:1008F00045A12BA002F056FF00BF002EFDD000BF87
:1009000029E004F015FF06466068C079A1684A6CCA
:100910008854A068406C401CA1684864A068406C82
:10092000402802D30020A1684864A068406CA168F8
:10093000096C88420BD1A068006C401CA168086457
:10094000A068006C402802D30020A16808643046EB
:1009500004F0F2FE00BF6068007910F0200FD0D1E3
:10096000E869C0B1A068006CA168496C884207D9E9
:10097000A068006CC0F14000A168496C084404E024
:10098000A068406CA168096C401A064631462846AA
:10099000EA69904700BF70BDE6AB00003000000080
:1009A0002825732920617373657274206661696CF0
:1009B00065642061742025733A2564200A000000D4
:1009C000F6AB000064657620213D2052545F4E5501
:1009D0004C4C000008AC000064657669636520211A
:1009E0003D2052545F4E554C4C0000008D060000D7
:1009F000CF060000D5060000DB06000077070000E8
:100A0000130800001EAC00006465766963652D3E26
:100A1000666C616720262052545F44455649434521
:100A20005F464C41475F494E545F525800000000FA
:100A30000146002005290ED2DFE801F00305070971
:100A40000B00C14808E0C14806E0C14804E0C148C5
:100A500002E0C14800E000BF00BF7047014600202F
:100A6000062910D2DFE801F0030507090B0DBB488A
:100A70000BE0BB4809E0BB4807E0BB4805E0BB48CA
:100A800003E0BB4801E0002000BF00BF704705281D
:100A900027D2DFE800F0030A11181F00B549896B5F
:100AA00041F40071B34A91631CE0B249896B41F48F
:100AB0008061B04A916315E0AE49896B41F40061F1
:100AC000AC4A91630EE0AB49896B41F48051A94A6D
:100AD000916307E0A749896B41F40051A54A9163EE
:100AE00000E000BF00BF704706282ED2DFE800F00C
:100AF000030A11181F269F49496B41F480619D4AE2
:100B0000516322E09B49496B41F40061994A51636A
:100B10001BE09849496B41F48051964A516314E0B7
:100B20009449496B41F40051924A51630DE0914957
:100B3000896A41F480618F4A916206E08D49896A31
:100B400041F400618B4A916200BF00BF70472DE9FC
:100B5000F34F83B088460020029003AD4FF00D099B
:100B60000CE0A9F10100844951F820000399884262
:100B700002D10120029004E0A9F10109B9F1000FAE
:100B8000EFD100BF029818B9002005B0BDE8F08F82
:100B90002968C1F30300FFF761FF04466F498C42E7
:100BA00002D06F48844202D17448076801E073485C
:100BB00047684FEA0810B7FBF0F086B27800B0FB48
:100BC000F8F0A0EB461000F0FF0A2968C1F303100B
:100BD000FFF72EFF83462968C1F38340FFF728FF04
:100BE00001902968C1F30310FFF751FF2968C1F391
:100BF0008340FFF74CFF2868C0F383304FF4E06177
:100C000001EA00202968C1F305214BF8210028687A
:100C1000000F4FF4E06101EA00212868C0F385521B
:100C2000019840F822102968C1F30300FFF75CFF28
:100C3000E07820F00C00E0700020A070607920F0D7
:100C4000200060712078C6F304210843207066708C
:100C5000A07A0AF01F010843A072E07840F020005B
:100C6000E0703E48844202D03D48844201D143486E
:100C700007683A48844203D12D2000F059F821E05A
:100C80003748844203D12F2000F052F81AE035484B
:100C9000844203D1312000F04BF813E03248844203
:100CA00003D1332000F044F80CE03048844203D1F3
:100CB000352000F03DF805E02D48844202D1372070
:100CC00000F036F8E07840F00C00E07020465CE779
:100CD00000BF027912F0800FFBD0C171704770B570
:100CE00006460C461546002304E0E15C3046FFF75B
:100CF000EFFF5B1CAB42F8D370BD0246107910F0D9
:100D0000200F03D0D0790870012070470020FCE745
:100D100010B51B4B40F243121AA11C48FFF79DFD72
:100D20001B4B40F243121BA11C48FFF796FD10BD60
:100D300000F01F020121914042094FF0E02303EB34
:100D40008202C2F8001170470090044000A00440E5
:100D500000B0044000C0044000D0044000A00640A1
:100D600000B0064000C0064000D0064000A00E4083
:100D700000B00E400080044030AC00001C00FF1F9B
:100D80000000FF1F75617274340000000002FF1F35
:100D90000C00FF1F75617274350000008802FF1F90
:100DA000704700BFFEE700BFFEE700BFFEE77047E9
:100DB0007047704770477047704710B502F020F9D0
:100DC0000748FFF78BFD02F02AF910BD10B502F0BD
:100DD00017F90448FFF782FD02F021F910BD000069
:100DE0000002FF1F8802FF1F734A127812F0C00F23
:100DF00070D1714A527912F0400F5AD16E4A12786E
:100E000012F0040F18D16D4A526812F0010F01D18F
:100E10006B4801E04FF40040674A1278C2F3C20306
:100E200001229A40D1B2B0FBF1F0634A527812F03D
:100E3000300F03D0400901E04FF4004047F6122282
:100E4000904203D349F69702904200D970475A4A1C
:100E5000D27802F0E00212F01F0F28D15211082AB6
:100E600025D2DFE802F004080C1014181C2000EB57
:100E70008002D0011CE000EB8002100218E0C0EB01
:100E80000012D00114E000EB8002500210E04FF499
:100E9000377250430CE04FF4B762504308E040F61D
:100EA0009502504304E040F67132504300E000BF29
:100EB00031E0414A127902F01F02511C404AB2FB54
:100EC000F1F03D4A527902F01F0202F11801484345
:100ED00021E0FFE7384A127802F0C002402A09D127
:100EE000354A527812F0010F02D14FF4004012E05F
:100EF000334810E0304A127802F0C002802A09D14B
:100F00002E4A526812F0010F01D12D4803E04FF430
:100F1000004000E09AE7294A526C012303EB127269
:100F2000B0FBF2F2274B1A601A461268264B1A6081
:100F3000224A526CC2F30362521CB0FBF2F25A60B6
:100F40001E4A526CC2F30352521CB0FBF2F29A607A
:100F50001A4A526CC2F30342521CB0FBF2F2DA603E
:100F600000BF73E74CF220501849C8814DF6281095
:100F7000C8810846008820F00100088014480F4905
:100F800048640D48007840F002000B4908700020CA
:100F900048700846C07840F0E000C87000BF0648BE
:100FA000807910F0100FFAD000BF0348807910F05C
:100FB0000C0FFAD17047000000400640008004404A
:100FC00000093D001800FF1F1C00FF1F0020054006
:100FD000000013010948804709480047FEE7FEE783
:100FE000FEE7FEE7FEE7FEE7FEE7FEE7FEE7FEE7D9
:100FF00004480549054A064B70470000650F00008C
:1010000011040000C815FF1FC81DFF1FC819FF1FCE
:10101000C819FF1F704716480068704770B504462E
:1010200004F086FB054612480460284604F084FB61
:1010300070BD10B50E480068401C0D49086003F0F3
:10104000A9FD0446A06C401EA064A06C18B9606C99
:10105000A06403F07FFE04F0DBF910BD01464FF4FD
:101060007A7201FB02F000F2E730B0FBF2F0704759
:101070002C00FF1F2DE9F041064603F08BFD08B15F
:1010800003F015FCD74D6C6810E00C20271A0822DD
:101090003146384602F0F5F838B903F07BFD08B167
:1010A00003F013FC3846BDE8F0812468281D844213
:1010B000EBD103F06FFD08B103F007FC0020F2E76D
:1010C00070B504460D46164614B94FF0FF3070BD9A
:1010D0002846FFF7CFFF10B14FF0FF30F7E72A4661
:1010E0000721204603F069F9E6820020A07600BFC0
:1010F000EDE770B5044654B900254623BA4ABBA1B2
:10110000BEA002F04FFB00BF002DFDD000BF204667
:1011100003F079F9002070BD2DE9F041B14F7E68F0
:1011200019E00C20341AD4F82480B8F1000F11D043
:10113000E08A10F0100F0DD12046C04705462DB1B2
:101140002A462146B5A002F02DFB03E0E08A40F0DC
:101150001000E0823668381D8642E2D10020BDE8EA
:10116000F08170B50446002554B90026B423B94A6D
:101170009EA1A2A002F016FB00BF002EFDD000BF72
:10118000606A90B1E08A10F0100F0ED12046616ABB
:10119000884705462DB12A462146A0A002F002FB51
:1011A00003E0E08A40F01000E082284670BD2DE99F
:1011B000F04104460E46002554B90027D723A64A1D
:1011C0008AA18EA002F0EEFA00BF002FFDD000BF72
:1011D000E08A10F0100F12D1606A60B12046616A97
:1011E000884705463DB12A4621468CA002F0DAFA2E
:1011F0002846BDE8F081E08A40F01000E082E08AF5
:1012000010F0080F06D0208B10F0080F02D06FF0FE
:101210000600EEE7A07E401CA076A07E50B9002715
:10122000F5238D4A8DA175A002F0BCFA00BF002FF6
:10123000FDD000BFA06A20B131462046A26A904787
:1012400005460DB1A81D02D146F0080020832846AE
:10125000CFE770B5044600255CB900264FF48873CB
:10126000834A62A165A002F09DFA00BF002EFDD066
:1012700000BFA07E10B94FF0FF3070BDA07E401EB1
:10128000A076A07E08B10020F7E7E06A18B12046FA
:10129000E16A884705460DB1A81D01D100202083D1
:1012A0002846EAE72DE9F04104460D4616461F465A
:1012B0006CB94FF0000840F239136E4A4BA14FA0B1
:1012C00002F070FA00BFB8F1000FFCD000BFA07EA2
:1012D00030B94FF0FF3001F0C7FE0020BDE8F081CB
:1012E000206B38B13B46324629462046D4F830C000
:1012F000E047F3E76FF0050001F0B6FE0020EDE7F0
:101300002DE9F04104460D4616461F466CB94FF0D4
:10131000000840F25F13584A34A138A002F042FAA4
:1013200000BFB8F1000FFCD000BFA07E30B94FF075
:10133000FF3001F099FE0020BDE8F081606B38B10C
:101340003B46324629462046D4F834C0E047F3E70E
:101350006FF0050001F088FE0020EDE72DE9F04177
:1013600004460D4616465CB9002740F27F13434AF7
:101370001EA122A002F016FA00BF002FFDD000BF70
:10138000A06B30B1324629462046A36B9847BDE892
:10139000F0810020FBE770B504460D465CB90026DD
:1013A0004FF4CC73364A11A114A002F0FBF900BF30
:1013B000002EFDD000BFE561002070BD70B5044671
:1013C0000D465CB9002640F2AD132E4A07A10BA0D2
:1013D00002F0E8F900BF002EFDD000BF256200201A
:1013E00070BD0000D000FF1F64AC00006465762073
:1013F000213D2052545F4E554C4C00002825732946
:1014000020617373657274206661696C6564206124
:10141000742025733A2564200A000000546F206967
:101420006E697469616C697A652064657669636563
:101430003A2573206661696C65642E2054686520C6
:101440006572726F7220636F646520697320256412
:101450000A00000079AC000088AC00006465762DBD
:101460003E7265665F636F756E7420213D203000AB
:1014700097AC0000A7AC0000B6AC0000C6AC000002
:10148000D8AC0000F2AC00003F49086070472DE97D
:10149000F0414CE000BF04F04BF9074601F0CEFDEF
:1014A00070B13A493AA002F07DF900255623374A37
:1014B00040A141A002F076F900BF002DFDD000BF91
:1014C000384604F039F900BF04F032F906464248C4
:1014D00000F051F8E8B94048016814200C1A04F1F2
:1014E0001400D0E900215160D0E900121160406081
:1014F000006000BFA06F10B12046A16F8847204652
:1015000003F023F8012808D1304604F015F9BDE8AE
:10151000F081304604F010F9F9E7304604F00CF998
:10152000A06A02F025FD204602F0D9FF00BF2A483C
:1015300000F021F80028ADD000BFE8E707E012482E
:10154000006810B1104800688047FFF7A0FFF6E779
:101550001FB520201F214201204BCDE90032CDE9EB
:10156000021000231E4A1FA1204803F0DEFA1F4884
:1015700003F040FB1FBD01460868884201D10120ED
:1015800070470020FCE700003000FF1F0CAD00009A
:1015900046756E6374696F6E5B25735D2073686159
:1015A0006C6C206E6F74207573656420696E2049C1
:1015B00053520A00300000002825732920617373FC
:1015C000657274206661696C65642061742025739E
:1015D0003A2564200A0000001401FF1F4803FF1F82
:1015E0003D1500007469646C65000000C802FF1FAF
:1015F0004268116042684A604160086070472DE9A6
:10160000F04105460C469046204603F0CFFBB8F16A
:10161000000F03D0B8F1010F23D105E004F114014C
:101620002846FFF7E5FF1CE02E680FE01420371A6C
:1016300094F8350097F83510884206DA04F1140161
:1016400007F11400FFF7D4FF02E03668AE42EDD197
:1016500000BFAE4204D104F114012846FFF7C8FFD1
:1016600000BF00BF0020BDE8F08170B505460EE068
:1016700004F05EF80646142029680C1A4FF0FF307B
:101680002063204603F089FA304604F055F82846D6
:1016900001F08EFC0028EBD0002070BD2DE9F04158
:1016A00004460D4616461F4664B94FF00008D8237D
:1016B000F34AF4A1F7A002F075F800BFB8F1000FEB
:1016C000FCD000BF2A460121204602F076FE2046CB
:1016D00001F076FCA68367720020BDE8F08170B54A
:1016E000044654B90025F523F24AE6A1E9A002F028
:1016F00059F800BF002DFDD000BF04F11400FFF722
:10170000B4FF204602F07FFE002070BD2DE9F047B7
:1017100005460E46174600BF04F00AF8814601F060
:101720008DFC88B1E449E5A002F03CF84FF00008D8
:1017300040F21113E04AEAA1D6A002F033F800BF4C
:10174000B8F1000FFCD000BF484603F0F5FF00BF22
:101750002946012002F079FE044614B92046BDE86E
:10176000F087204601F02CFCA68367722046F6E73E
:1017700070B5044600BF03F0DBFF064601F05EFCD7
:1017800078B1D849CDA002F00DF800254FF4987338
:10179000D44AD3A1BFA002F005F800BF002DFDD0B0
:1017A00000BF304603F0C8FF00BF5CB900254FF40E
:1017B0009973CC4AB3A1B7A001F0F4FF00BF002D8C
:1017C000FDD000BF04F11400FFF74FFF204602F0E8
:1017D00086FE002070BD2DE9F34705465DB9002661
:1017E00040F24D13C04AA7A1AAA001F0DBFF00BF41
:1017F000002EFDD000BF00BFBC48006818B12846CD
:10180000BA490968884700BF03F092FF074600BF46
:1018100000BFA88B002806DDA88B401EA883384691
:1018200003F08AFF63E0019830B9384603F084FF83
:101830006FF00100BDE8FC8700BF03F079FF804630
:1018400003F0A8F978B9A849A9A001F0ABFF0026D8
:1018500040F26D13A44AA2A18EA001F0A3FF00BF25
:10186000002EFDD000BF00BF03F062FF814601F0F3
:10187000E5FB78B19C4991A001F094FF002640F26D
:101880006D13994A96A183A001F08CFF00BF002E32
:10189000FDD000BF484603F04FFF00BF404603F0B5
:1018A0004BFF00BF03F076F904460021216300BF1F
:1018B00000BF6A7A214605F11400FFF7A0FE0198E7
:1018C00000280BDD00BF00BF01AA002104F14C007D
:1018D00003F070FD04F14C0003F0A2FC384603F065
:1018E0002BFF02F03DFF206B08B1206BA2E700BF89
:1018F0008D48006818B128468B490968884700BFA1
:10190000002097E710B5044600212046FFF763FF4B
:1019100010BD70B5044600BF8448006818B1204669
:1019200082490968884700BF002503F001FF064689
:1019300000BF00BF04F1140001F03AFB28B904F124
:10194000140001F045FB012502E0A08B401CA083A0
:10195000304603F0F1FE012D01D102F001FF00201D
:1019600070BD2DE9F04104460E4615465CB90027CE
:101970004FF4F2736E4A43A146A001F013FF00BF7B
:10198000002FFDD000BF012E10D12F4603F0D0FE56
:10199000804604F11400FFF768FEA783404603F079
:1019A000CBFE02F0DDFE0020BDE8F0814FF0FF30FD
:1019B000FAE72DE9F04104460D4616465CB90027CA
:1019C00040F20F235B4A5CA132A001F0EBFE00BFA6
:1019D000002FFDD000BF2A460221204602F0EDFC78
:1019E000204601F0EDFA0120A08300202062FF20B4
:1019F000A0770020E0776672BDE8F08170B50446FC
:101A00005CB9002540F22E23504A4BA121A001F0E1
:101A1000C9FE00BF002DFDD000BF04F11400FFF788
:101A200024FE204602F0EFFC002070BD2DE9F041BD
:101A300005460E4600BF03F07BFE804601F0FEFA2D
:101A400078B143491DA001F0ADFE002740F24923C3
:101A50003F4A23A10FA001F0A5FE00BF002FFDD03B
:101A600000BF404603F068FE00BF2946022002F096
:101A7000ECFC044614B92046BDE8F0816AE00000A1
:101A800022AD000073656D20213D2052545F4E55FC
:101A90004C4C0000282573292061737365727420F3
:101AA0006661696C65642061742025733A25642041
:101AB0000A0000002EAD00003CAD000046756E63CC
:101AC00074696F6E5B25735D207368616C6C206E4A
:101AD0006F74207573656420696E204953520A0043
:101AE000300000004AAD000058AD0000F800FF1FB4
:101AF00046756E6374696F6E5B25735D20736861F4
:101B00006C6C206E6F742062652075736564206252
:101B100065666F7265207363686564756C657220B5
:101B200073746172740A0000FC00FF1F0001FF1F44
:101B300064AD000073AD00006D7574657820213DC3
:101B40002052545F4E554C4C0000000081AD000007
:101B500091AD0000204601F033FA0120A08300205F
:101B60002062FF20A0770020E07766722046BDE863
:101B7000F08170B5044600BF03F0DAFD064601F0BF
:101B80005DFA90B1F749AFF2CC0001F00BFE0025F1
:101B900040F26A23F34AAFF2B801AFF2081001F045
:101BA00001FE00BF002DFDD000BF304603F0C4FD94
:101BB00000BF6CB900254FF41B73EA4AAFF28801ED
:101BC000AFF2301001F0EEFD00BF002DFDD000BFE0
:101BD00004F11400FFF749FD204602F080FC0020CC
:101BE00070BD2DE9F347044600BF03F0A1FD804618
:101BF00002F0D0FF002812D1DB49AFF20C1001F047
:101C0000D1FD00264FF42273D74AAFF22C11AFF268
:101C10007C1001F0C7FD00BF002EFDD000BF00BF4B
:101C200003F086FD814601F009FA90B1CE49AFF28A
:101C3000741001F0B7FD00264FF42273CA4AAFF2C8
:101C40006011AFF2B01001F0ADFD00BF002EFDD06D
:101C500000BF484603F070FD00BF404603F06CFD36
:101C600000BF6CB9002640F28A23BF4AAFF2381198
:101C7000AFF2E01001F096FD00BF002EFDD000BFD6
:101C800003F056FD074602F085FF054600BFB74842
:101C9000006818B12046B5490968884700BF00BFF1
:101CA00000BF00202863206AA84203D1E07F401CC7
:101CB000E07749E0A08B00280ADDA08B401EA083BE
:101CC000256295F83500A077E07F401CE0773BE087
:101CD000019848B96FF001002863384603F02CFDE5
:101CE0006FF00100BDE8FC8700BF00BF95F835002C
:101CF000216A91F83510884205DA05F13502022192
:101D0000206A03F025F9627A294604F11400FFF7EE
:101D100076FC019800280BDD00BF00BF01AA00215E
:101D200005F14C0003F046FB05F14C0003F078FA96
:101D3000384603F001FD02F013FD286B08B1286B53
:101D4000D0E703F0F5FC0746384603F0F5FC00BF8A
:101D50008748006818B1204685490968884700BF50
:101D60000020BFE72DE9F0470446002600BF03F03E
:101D7000DFFC814602F00EFF002812D17D49AFF250
:101D8000902001F00FFD002740F20D33794AAFF2A9
:101D9000B021AFF2003001F005FD00BF002FFDD0F3
:101DA00000BF00BF03F0C4FC824601F047F990B1C8
:101DB0007049AFF2F82001F0F5FC002740F20D3336
:101DC0006C4AAFF2E421AFF2343001F0EBFC00BF1B
:101DD000002FFDD000BF504603F0AEFC00BF4846C8
:101DE00003F0AAFC00BF02F0D5FE054603F0A0FCFC
:101DF000804600BF00BF00BF5F48006818B12046A2
:101E00005D490968884700BF206AA84209D04FF0A1
:101E1000FF302863404603F08FFC4FF0FF30BDE8F1
:101E2000F087E07F401EE077E07F08BBA07F216A5B
:101E300091F83510884205D004F11E020221206A73
:101E400003F086F804F1140001F0B2F888B9142008
:101E500061690D1A00BF00BF256295F83500A077B3
:101E6000E07F401CE07704F1140001F0B1F8012696
:101E700006E0A08B401CA08300202062FF20A077FA
:101E8000404603F059FC012E01D102F069FC00200C
:101E9000C5E703464FF0FF3070472DE9F041044697
:101EA0000D46164664B9002740F27B33334A34A10D
:101EB000AFF2204001F076FC00BF002FFDD000BF44
:101EC0002A460321204602F078FA6672204601F085
:101ED00077F80020E061BDE8F08170B5044664B990
:101EE000002540F297332B4A25A1AFF2584001F06C
:101EF00059FC00BF002DFDD000BF04F11400FFF716
:101F0000B4FB204602F07FFA002070BD2DE9F041BD
:101F100005460E4600BF03F00BFC804601F08EF82C
:101F200090B11D49AFF26C4001F03CFC00274FF42A
:101F30006C73194AAFF25841AFF2A84001F032FC7D
:101F400000BF002FFDD000BF404603F0F5FB00BFEF
:101F50002946032002F079FA044614B92046BDE868
:101F6000F0811BE0A1AD0000B1AD0000F800FF1F43
:101F7000FC00FF1FBFAD00000001FF1FD0AD00003F
:101F80006576656E7420213D2052545F4E554C4C51
:101F900000000000DEAD0000EEAD000066722046DD
:101FA00001F00EF80020E0612046BDE8F08170B538
:101FB00004466CB9002540F2CE33FC4AAFF2400132
:101FC000AFF2305001F0EEFB00BF002DFDD000BF9E
:101FD00000BF03F0ADFB064601F030F890B1F349C5
:101FE000AFF2285001F0DEFB00254FF47473EF4A86
:101FF000AFF21451AFF2645001F0D4FB00BF002DDA
:10200000FDD000BF304603F097FB00BF04F1140081
:10201000FFF72BFB204602F062FA002070BD2DE98D
:10202000F05F04460F467CB94FF0000A40F2EF33F0
:10203000DF4AAFF2B401AFF2A45001F0B3FB00BF2E
:10204000BAF1000FFCD000BF1FB94FF0FF30BDE860
:10205000F09F4FF0000800BFD648006818B1204636
:10206000D4490968884700BF03F062FB8346E069F2
:102070003843E06104F1140000F09AFFC0BB6669C8
:1020800032E01420351A4FF0FF3995F8400010F077
:10209000010F08D0E86BE1690840E96B884211D173
:1020A0004FF000090EE095F8400010F0020F09D043
:1020B000E86BE169084205D0E86BE1690840E86334
:1020C0004FF000093668B9F1000F0DD195F84000C6
:1020D00010F0040F03D0E069E96B8843E061284603
:1020E00002F05BFD4FF0010804F114008642C8D1F4
:1020F000584603F021FBB8F1010F01D102F030FB8B
:102100000020A4E72DE9FF4F83B005460E46174691
:10211000DDF8408000BF03F00BFB029002F03AFDB7
:10212000002814D1A449AFF2386001F03BFB4FF016
:10213000000A40F24F43A04AAFF25C61AFF2AC60DC
:1021400001F030FB00BFBAF1000FFCD000BF00BFB0
:1021500003F0EEFA019000F071FFA0B19649AFF2E2
:10216000A46001F01FFB4FF0000A40F24F43924A77
:10217000AFF29461AFF2E46001F014FB00BFBAF17A
:10218000000FFCD000BF019803F0D6FA00BF029800
:1021900003F0D2FA00BF7DB94FF0000A40F252437B
:1021A000854AAFF22421AFF2147001F0FBFA00BFB0
:1021B000BAF1000FFCD000BF26B94FF0FF3007B0D6
:1021C000BDE8F08F4FF0FF3902F0E4FC0446002137
:1021D000216300BF7948006818B12846774909682B
:1021E000884700BF03F0A4FA834617F0010F06D01A
:1021F000E8693040B0421BD14FF0000918E017F0F9
:10220000020F05D0E869304212D04FF000090FE00C
:102210004FF0000A4FF48E63674AAFF23C71AFF2A1
:102220008C7001F0BFFA00BFBAF1000FFCD000BF04
:10223000B9F1000F0AD1E8693040C8F8000017F082
:10224000040F2ED0E869B043E8612AE0069818B977
:102250006FF00100206324E0E66384F840706A7A3E
:10226000214605F11400FFF7CAF90698002809DD98
:1022700006AA002104F14C0003F09CF804F14C0084
:1022800002F0CEFF584603F057FA02F069FA206BCD
:1022900008B1206B93E703F04BFA8346E06BC8F874
:1022A0000000584603F048FA00BF4548006818B1DE
:1022B000284643490968884700BF206B7FE72DE91E
:1022C000F04104460D4690466CB9002640F2BE43EC
:1022D0003C4AAFF25431AFF6440001F063FA00BF5C
:1022E000002EFDD000BF012D10D103F021FA0746CA
:1022F00004F11400FFF7B9F90020E061384603F05B
:102300001BFA02F02DFA0020BDE8F0814FF0FF30FB
:10231000FAE72DE9F04704460D4616461F46DDF85C
:10232000208074B94FF0000940F2EB43264A27A100
:10233000AFF6A00001F036FA00BFB9F1000FFCD0F3
:1023400000BF2A460421204602F037F884F80980AD
:10235000204600F035FEE661278400206084A084DA
:10236000E08404F1280000F020FE0020BDE8F087A2
:1023700070B5044664B9002540F20E53174A13A104
:10238000AFF6F00001F00EFA00BF002DFDD000BF47
:1023900004F11400FFF769F904F12800FFF765F96B
:1023A000204602F030F8002070BD0000FEAD0000B5
:1023B0000EAE00000001FF1F1CAE0000F800FF1F62
:1023C000FC00FF1F2AAE00003BAE00006D62202122
:1023D0003D2052545F4E554C4C00000046AE00006C
:1023E0002DE9F04705460E46174600BF03F0A0F959
:1023F000814600F023FEA0B1FD49AFF6401001F088
:10240000D1F94FF0000840F22A53F94AAFF63011E3
:10241000AFF6801001F0C6F900BFB8F1000FFCD094
:1024200000BF484603F088F900BF2946042002F0A7
:102430000CF8044614B92046BDE8F08767722046C0
:1024400000F0BEFD2684218C880001F0ABFBE0612A
:10245000E06920B9204602F042F80020ECE70020B5
:102460006084A084E08404F1280000F09EFD2046F2
:10247000E2E770B5044600BF03F05AF9064600F0E3
:10248000DDFD90B1DB49AFF6CC1001F08BF90025F2
:1024900040F25553D74AAFF6B811AFF6082001F015
:1024A00081F900BF002DFDD000BF304603F044F994
:1024B00000BF6CB900254FF4AB63CE4AAFF2F40114
:1024C000AFF6302001F06EF900BF002DFDD000BF47
:1024D00004F11400FFF7C9F804F12800FFF7C5F86C
:1024E000E06901F045FD204601F0F9FF002070BDD4
:1024F0002DE9F74F04460F467CB94FF0000840F233
:102500008553BD4AAFF23C11AFF6782001F04AF98D
:1025100000BFB8F1000FFCD000BF002602F03AFB6C
:10252000054600BFB548006818B12046B3490968A0
:10253000884700BF03F0FCF88146608C218C8842FC
:1025400008D1029830B9484603F0F6F86FF002005F
:10255000BDE8FE8F7BE000202863029828B948463A
:1025600003F0EAF86FF00200F2E700BF03F0E0F8D2
:10257000824602F00FFBA0B99F49AFF68C2001F014
:1025800011F94FF000084FF4B5639B4AAFF6B02144
:10259000AFF6003001F006F900BFB8F1000FFCD033
:1025A00000BF00BF03F0C4F8834600F047FDA0B1B0
:1025B0009149AFF6F82001F0F5F84FF000084FF41C
:1025C000B5638D4AAFF6E821AFF6383001F0EAF88E
:1025D00000BFB8F1000FFCD000BF584603F0ACF8C4
:1025E00000BF504603F0A8F800BF627A294604F104
:1025F0002800FFF704F8029800280EDDFEF70BFD17
:10260000064600BF00BF02AA002105F14C0002F0FF
:10261000D1FE05F14C0002F003FE484603F08CF8B1
:1026200002F09EF8286B08B1286B91E703F080F860
:102630008146029800280ADDFEF7EDFC861B029811
:10264000801B02900298002801DA00200290608C22
:10265000218C88423FF47FAFA18CE06940F8217063
:10266000A08C401CA084A08C218C884201DB00201F
:10267000A084608C401C608404F1140000F098FC7D
:1026800050B904F1140000F0A3FC484603F054F8DC
:1026900002F066F800205BE7484603F04DF80020A2
:1026A00056E770B504460D46002229462046FFF73E
:1026B0001FFF70BD2DE9F74F04460F467CB94FF060
:1026C000000840F216634E4AAFF20031AFF63C40CC
:1026D00001F068F800BFB8F1000FFCD000BF002681
:1026E00002F058FA054600BF4648006818B1204677
:1026F00044490968884700BF03F01AF88146608C96
:1027000040B9029830B9484603F016F86FF001005E
:10271000BDE8FE8F89E000202863029830B9484662
:1027200003F00AF86FF001002863F1E700BF02F040
:10273000FFFF824602F02EFAA0B93149AFF65040B1
:1027400001F030F84FF0000840F23B632C4AAFF63E
:102750007041AFF6C04001F025F800BFB8F1000F9E
:10276000FCD000BF00BF02F0E3FF834600F066FC30
:10277000A0B12349AFF6BC4001F014F84FF00008B7
:1027800040F23B631E4AAFF6A841AFF6F84001F0B5
:1027900009F800BFB8F1000FFCD000BF584602F0A6
:1027A000CBFF00BF504602F0C7FF00BF627A294648
:1027B00004F11400FEF723FF029800280EDDFEF757
:1027C0002AFC064600BF00BF02AA002105F14C000A
:1027D00002F0F0FD05F14C0002F022FD484602F047
:1027E000ABFF01F0BDFF286B70B1286B90E70000D4
:1027F00053AE000060AE00006DAE00000001FF1F90
:102800007DAE0000F800FF1F02F092FF81460298A3
:1028100000280ADDFEF7FFFB861B0298801B029052
:102820000298002801DA00200290608C00283FF412
:1028300072AFE18CE06950F821003860E08C401CF8
:10284000E084E08C218C884201DB0020E084608CF5
:10285000401E608404F1280000F0AAFB98B904F13E
:10286000280000F0B5FB484602F066FF00BFFB48B9
:10287000006818B12046F9490968884700BF01F08F
:102880006FFF002044E7484602F056FF00BFF348C0
:10289000006818B12046F1490968884700BF002048
:1028A00036E72DE9F04104460D4690466CB9002606
:1028B00040F29963EA4AAFF2EC41AFF6286000F0CB
:1028C00071FF00BF002EFDD000BF012D16D102F018
:1028D0002FFF074604F11400FEF7C7FE04F128009D
:1028E000FEF7C3FE00206084A084E084384602F036
:1028F00023FF01F035FF0020BDE8F0814FF0FF30ED
:10290000FAE72DE9F05F04460F4690469946DDF858
:1029100028A074B94FF0000B40F2D563D14AD2A180
:10292000AFF6906000F03EFF00BFBBF1000FFCD09F
:1029300000BF3A460521204601F03FFD0B9860722A
:10294000204600F03DFBC4F81C8009F1070020F090
:1029500007002084208C001DBAFBF0F0608400206A
:10296000A062E0622063002508E0208C001DE16980
:1029700005FB0016206B306026636D1C608CA8423E
:10298000F3DC0020A084BDE8F09F70B5044664B974
:10299000002540F20673B84AB3A1AFF6087000F004
:1029A00001FF00BF002DFDD000BF04F11400FEF7B1
:1029B0005CFE204601F027FD002070BD70B5044686
:1029C00000BF02F0B5FE064600F038FB90B1AB49FF
:1029D000AFF6187000F0E6FE00254FF4EC63A74A4E
:1029E000AFF60471AFF6547000F0DCFE00BF002DAE
:1029F000FDD000BF304602F09FFE00BF64B9002545
:102A000040F263739D4A98A1AFF6787000F0CAFE59
:102A100000BF002DFDD000BF04F11400FEF725FE1D
:102A2000E06901F0A5FA204601F059FD002070BDD3
:102A30002DE9F84F0746884691469A4600BF02F0B6
:102A400077FE009000F0FAFAA0B18D49AFF69470CD
:102A500000F0A8FE4FF0000B40F22673884AAFF654
:102A60008071AFF6D07000F09DFE00BFBBF1000F8B
:102A7000FCD000BF009802F05FFE00BF3946052081
:102A800001F0E3FC044614B92046BDE8F88F84F851
:102A900009A0204600F094FA08F1070020F0070092
:102AA0002084A4F82290218C091D628C01FB02F085
:102AB00001F078F8E061E06920B92046FFF77EFF79
:102AC0000020E2E70020A062E0622063002508E029
:102AD000208C001DE16905FB0016206B3060266329
:102AE0006D1C608CA842F3DC0020A0842046CCE75B
:102AF0002DE9F04704460F4616466CB94FF0000822
:102B000040F289735F4A58A15F4800F04BFE00BF56
:102B1000B8F1000FFCD000BF6FB94FF0000840F2D1
:102B20008A73584A59A1584800F03CFE00BFB8F1DA
:102B3000000FFCD000BF6EB94FF0000840F28B735D
:102B4000504A57A1504800F02DFE00BFB8F1000FC9
:102B5000FCD000BF208CB04203D24FF0FF30BDE864
:102B6000F08700BF5148006818B120464F490968F6
:102B7000884700BF02F0DCFD8146256B2DB9484631
:102B800002F0DAFD6FF00200E9E7286820634846AA
:102B900002F0D2FD0020286032463946281D00F0A0
:102BA000A8FA02F0C5FD8146E06A08B1E06A056056
:102BB000E562A06A00B9A562A08C401CA08404F163
:102BC000140000F0F5F950B904F1140000F000FA17
:102BD000484602F0B1FD01F0C3FD0020BFE74846C2
:102BE00002F0AAFD0020BAE72DE9F04704460F469F
:102BF00016466CB94FF0000840F2E1732C4A1AA156
:102C0000214800F0CFFD00BFB8F1000FFCD000BF9D
:102C10006FB94FF0000840F2E273254A1BA11A4831
:102C200000F0C0FD00BFB8F1000FFCD000BF6EB9CE
:102C30004FF0000840F2E3731D4A19A1124800F05A
:102C4000B1FD00BFB8F1000FFCD000BF208CB04236
:102C500030D24FF0FF30BDE8F0870000FC00FF1FCE
:102C600088AE000096AE00006D7120213D205254C8
:102C70005F4E554C4C000000A1AE0000BBAE000002
:102C8000AEAE0000C8AE0000941A00006275666621
:102C9000657220213D2052545F4E554C4C0000007F
:102CA00073697A6520213D20300000000001FF1F7C
:102CB000D3AE000000BFCC48006818B12046CA4916
:102CC0000968884700BF02F033FD8146256B35B99E
:102CD000484602F031FD6FF00200BDE8F087286839
:102CE0002063484602F028FD32463946281D00F090
:102CF00000FA02F01DFD8146A06A2860A562E06A24
:102D000000B9E562A08C401CA08404F1140000F01E
:102D10004FF950B904F1140000F05AF9484602F096
:102D20000BFD01F01DFD0020D7E7484602F004FD31
:102D30000020D2E72DE9FF4F83B004460F469046AE
:102D400074B94FF0000A40F63903A84AAFF2E8011F
:102D5000A74800F027FD00BFBAF1000FFCD000BF6C
:102D600077B94FF0000A40F63A03A04AAFF2E40107
:102D70009F4800F017FD00BFBAF1000FFCD000BF64
:102D8000B8F1000F0ED14FF0000A40F63B03974A0E
:102D9000AFF2F401964800F005FD00BFBAF1000F54
:102DA000FCD000BF4FF0000901F0F4FE054600BF63
:102DB0009048006818B120468E490968884700BFCE
:102DC00002F0B6FC8346A08C48B9069838B958463C
:102DD00002F0B2FC6FF0010007B0BDE8F08F7CE0BC
:102DE00000BF02F0A5FC029001F0D4FE98B97F4923
:102DF0007F485C3000F0D6FC4FF0000A40F65103EB
:102E00007A4AAFF25C117A4800F0CCFC00BFBAF10C
:102E1000000FFCD000BF00BF02F08AFC019000F060
:102E20000DF998B171497248283000F0BBFC4FF0A1
:102E3000000A40F651036D4AAFF294116C4800F05D
:102E4000B1FC00BFBAF1000FFCD000BF019802F046
:102E500073FC00BF029802F06FFC00BF00202863E3
:102E6000069830B9584602F067FC6FF001002863FD
:102E7000B2E7627A294604F11400FEF7C0FB069817
:102E800000280EDDFEF7C7F8814600BF00BF06AA86
:102E9000002105F14C0002F08DFA05F14C0002F022
:102EA000BFF9584602F048FC01F05AFC286B08B103
:102EB000286B91E702F03CFC8346069800280CDD65
:102EC000FEF7A9F8A0EB09090698A0EB0900069007
:102ED0000698002801DA00200690A08C00283FF414
:102EE0007FAFA66A3068A062E06AB04201D10020DC
:102EF000E062A08C401EA084584602F01DFC208C8D
:102F0000404501D2208C00E040460246311D384643
:102F100000F0EFF802F00CFC8346206B3060266373
:102F2000584602F009FC00BF3348006818B120463B
:102F300031490968884700BF00204DE72DE9F04777
:102F400004460E46914664B9002740F6BF032B4A5B
:102F5000AFF2EC21264800F025FC00BF002FFDD089
:102F600000BF012E1ED102F0E3FB804604F11400E5
:102F7000FEF77BFB0AE0A56A2868A062E06AA84227
:102F800001D10020E062206B28602563A06A002840
:102F9000F1D1A084404602F0CFFB01F0E1FB00201C
:102FA000BDE8F0874FF0FF30FAE7406000607047FF
:102FB00001460868884201D1012070470020FCE7E3
:102FC00010B5044604F11400FFF7EFFF002010BD18
:102FD00070B50446142021680D1A00BF00BF2846B2
:102FE00001F0DBFD002070BD0001FF1FE0AE00001E
:102FF000941A0000F800FF1FFC00FF1FEBAE00005A
:1030000010B500BF00BF02F093FB04460D480078E6
:10301000401C0C490870204602F08EFB10BD10B514
:1030200000BF00BF02F084FB044606480078401E43
:1030300004490870204602F07FFB10BD014800786B
:10304000704700003400FF1F10B5FFF7F7FF10B105
:10305000F948006810BD01F09DFD044614B9F6481A
:103060000068F7E7206BF5E770B50446FFF7E6FF69
:1030700010B1F148046070BD01F08CFD054615B932
:10308000ED480460F7E72C6300BFF4E710B5FFF7E5
:10309000D5FF08B1E84810BD01F07CFD044614B12D
:1030A00004F13000F7E7E448F5E7F0B50C460546D3
:1030B000E6B2042A15D310F0030F12D1014646EAF6
:1030C000062343EA034304E008C108C108C108C15C
:1030D000103A102AF8D201E008C1121F042AFBD2CC
:1030E0000D4601E005F8016B1700A2F10102F9D1CC
:1030F000F0BD2DE9F0410F46164604463D463346E5
:10310000102B26D305F0030C04F003085CEA080C2E
:103110001FD121462A4610E052F804CB41F804CBD7
:1031200052F804CB41F804CB52F804CB41F804CB5D
:1031300052F804CB41F804CB103B102BECD204E046
:1031400052F804CB41F804CB1B1F042BF8D20C46D9
:10315000154603E015F801CB04F801CB5FEA030C38
:10316000A3F10103F6D1BDE8F08170B50C4601462C
:1031700023468B4210D29D188D420DD91144134421
:1031800005E05D1E2B462E784D1E29462E7015003B
:10319000A2F10102F5D108E003E013F8015B01F8A8
:1031A000015B1500A2F10102F7D170BDF0B5034635
:1031B00000201C460D4608E026782F78F61B3000CC
:1031C00000D004E0641C6D1C521E002AF4D800BF1D
:1031D000F0BD01460A4600E0521C10780028FBD1E1
:1031E000501A7047F0B506460F463846FFF7F1FF14
:1031F00005460DB93046F0BD3046FFF7EAFF0446FC
:1032000009E0641E2A4639463046FFF7CFFF08B969
:103210003046F0E7761CAC42F3DA0020EBE730B53D
:1032200003460C4600BF13F8011B14F8012B41297B
:1032300002DB5A2900DC2031412A02DB5A2A00DC59
:103240002032914201D10029EDD1881A30BD70B5EC
:103250000346A2B118460C4600BF14F8016B00F8F3
:10326000016B3EB902E0002500F8015B551E2A0003
:10327000F9D102E0551E2A00EFD100BF00BF184669
:1032800070BD30B5034600200BE011F8015B1C78DF
:10329000641B64B2200002D113F8015B05B902E09F
:1032A000521E002AF1D100BF30BD024601E0521C7F
:1032B000491C107818B110780B789842F7D0107824
:1032C0000B78C01A704770B504462046FFF781FF9F
:1032D000451C284600F066FC06460EB9002070BD6D
:1032E0002A4621463046FFF704FF3046F7E770478D
:1032F0002DE9F04F85B00D469C46DDE90F740E9B1D
:1033000014F0400F02D0DFF8348101E0DFF83081A3
:10331000CDF8008014F0100F01D024F0010414F057
:10332000010F02D04FF0300801E04FF02008C246F4
:10333000002614F0020F0DD0002A02DA2D26524288
:1033400008E014F0040F01D02B2603E014F0080F5E
:1033500000D02026002142B94FF0300B8846491C8E
:103360000DF1040909F808B01DE01AE0E146B9F1D1
:103370000A0F08D14FF00A0BB2FBFBFE0BFB1E2815
:10338000B2FBFBF202E002F00F08120900BFDDF809
:10339000009019F808B08846491C0DF1040909F895
:1033A00008B0002AE2D1B94200DD0F46DB1B14F061
:1033B000110F10D116B1002B00DD5B1E06E0A842F4
:1033C00003D84FF0200880F80080401CB3F10008BB
:1033D000A3F10103F3DC26B1A84201D806705B1EFD
:1033E000401C14F0100F0AD104E0A84201D880F864
:1033F00000A0401CB3F10008A3F10103F5DC06E0D6
:10340000A84203D84FF0300880F80080401CB8462E
:103410007F1E8845F4DC08E0A84205D80DF10408B9
:1034200018F8018080F80080401CB1F10008A1F17B
:103430000101F1DC0DE000003C00FF1F0AB00000BC
:10344000F9AF0000A84203D84FF0200880F80080B0
:10345000401CB3F10008A3F10103F3DC05B0BDE8A3
:10346000F08F0146002009E00B685A1C0A601A78A8
:1034700000EB800302EB4302A2F130000A681278ED
:10348000303A0A2AF0D370472DE9FF4F89B08046C1
:1034900044460A984044461E464504D24FF0FF3643
:1034A000A6EB08000A906DE10B980078252806D05D
:1034B000B44202D80B9800782070641C5FE10025AC
:1034C00026E00B98401C0B900B9800782D2802D119
:1034D00045F010051CE00B9800782B2802D145F030
:1034E000040515E00B980078202802D145F0080566
:1034F0000EE00B980078232802D145F0200507E064
:103500000B980078302802D145F0010500E000E07A
:10351000D7E700BF4FF0FF370B98007830380A2804
:1035200004D20BA8FFF79DFF07460EE00B9800782A
:103530002A280AD10B98401C0B900C9880C80C903C
:10354000002F02DA7F4245F010054FF0FF390B984B
:1035500000782E281CD10B98401C0B900B980078FB
:1035600030380A2804D20BA8FFF77BFF81460AE017
:103570000B9800782A2806D10B98401C0B900C98C9
:1035800050F8049B0C90B9F1000F01DA4FF00009DC
:10359000002004900B980078682803D00B980078DE
:1035A0006C2805D10B98007804900B98401C0B9068
:1035B0000A2005900B9800786F2874D00CDC6328E3
:1035C00013D004DC25286FD058286ED18CE06428F5
:1035D0006CD06928F9D18EE0702869D0732824D086
:1035E000752877D07828F0D181E015F0100F08D138
:1035F00004E0B44201D820202070641C781E071E0D
:10360000F7DC0C9802C80C90C8B20790B44201D8FD
:1036100007982070641C04E0B44201D82020207078
:10362000641C781E071EF7DCA9E00C980068069061
:103630000C98001D0C90069808B9C7A00690069833
:10364000FFF7C7FD8346B9F1000F02DDCB4500DD72
:10365000CB4615F0100F09D104E0B44201D8202068
:103660002070641C38467F1E5845F6DC0020089008
:103670000BE0B44202D8069800782070641C0698CB
:10368000401C06900898401C089008985845F0DBAC
:1036900004E0B44201D820202070641C38467F1E0C
:1036A0005845F6DC6BE01CE015E028E022E0FFE77F
:1036B000781C02D1082745F00105CDE90079029573
:1036C0000C9804C8102331460C902046FFF710FEDA
:1036D000044654E012E0B44201D825202070641C56
:1036E0004DE0082005901DE045F0400500BF10208A
:1036F000059017E000BF45F0020500BF12E0B4429C
:1037000001D825202070641C0B98007830B1B44299
:1037100002D80B9800782070641C02E00B98401EC1
:103720000B902CE000BF04986C2807D10C9850F83F
:1037300004AB0C9015F0020F16D015E00498682821
:103740000AD10C9802C81FFA81FA0C9015F0020FEA
:103750000AD00FFA8AFA07E00C9850F804AB0C90E4
:1037600015F0020F00D000BFCDE900790295524656
:1037700031462046059BFFF7BBFD044600BF0B9872
:10378000401C0B900B98007800287FF48DAEB4425B
:1037900001D8207001E000203070A4EB08000DB0CB
:1037A000BDE8F08F0FB438B505A800907F216C48B4
:1037B000009B049AFFF768FE04467F2C00D97F2403
:1037C0006848006818B96648FFF791FD15E065483C
:1037D0000068C58A63480068C08A40F040006149BB
:1037E0000968C88223465E4A00215E480068FDF7EA
:1037F00087FD5C480068C58200BF0020009038BC8F
:103800005DF814FB08B558A0FFF7CCFF59A0FFF7EF
:10381000C9FF61A0012302221946009061A0FFF7B1
:10382000C1FF68A0FFF7BEFF08BD0FB4F8B504469E
:103830000D4609A8009029462046009B089AFFF7EC
:1038400023FE0646002000903046F8BC5DF814FBCD
:1038500037B505460C4622464FF0FF312846029BFD
:10386000FFF712FE3EBD0FB438B5044606A800901F
:103870002046009A0599FFF7EBFF054600200090CF
:10388000284638BC5DF814FB36480068704770B5B0
:103890000546344806682846FDF7ECFB044664B14B
:1038A0003048006818B12F480068FDF7D2FC2D4859
:1038B000046003210068FDF77AFC304670BD2DE9F5
:1038C000F04107460C46E01C20F00304F81C20F0F1
:1038D000030000EB0408404600F064F9054665B1BA
:1038E000601E284201D12E1904E0601E2844611E8A
:1038F00020EA010646F8045C35462846BDE8F0811A
:1039000070B5044654F8045C284600F031FB70BDE5
:10391000014609B90020704711F0FF0F04D0C8B26A
:10392000334A105C401CF6E711F47F4F05D0304855
:10393000C1F30722805C0930EDE711F47F0F05D059
:103940002B48C1F30742805C1130E4E7284800EBC4
:10395000116000781930DEE7284E554C4C290000E4
:103960004807FF1F3800FF1F0A205C207C202F0A19
:10397000000000002D205254202D20202020205413
:103980006872656164204F7065726174696E67204A
:1039900053797374656D0A004A756C2020372032A4
:1039A00030313400202F207C205C20202020202556
:1039B000642E25642E2564206275696C642025734D
:1039C0000A0000002032303036202D2032303133D2
:1039D00020436F707972696768742062792072740D
:1039E0002D746872656164207465616D0A00000061
:1039F000F9AE0000F44908607047F4490860704768
:103A00002DE9F0410446F248006884420AD20027BA
:103A10008D23F04AF0A1F8A0FFF7C4FE00BF002FED
:103A2000FDD000BFFC48006884420AD300278E23E3
:103A3000E84AFAA1F0A0FFF7B5FE00BF002FFDD0C5
:103A400000BF608850B100278F23E24AFEA1EAA0A0
:103A5000FFF7A8FE00BF002FFDD000BFDC49606863
:103A600009684518AC4215D0688898B9EA480068DA
:103A700085420FD0F8480068A84201D1F64804609A
:103A800068686060D2480068201AD14A6968126884
:103A900011448860CE49A06809684618A64211D032
:103AA000708878B9EC480068A04201D1EA48066005
:103AB00060687060C6480068301AC54A616812685C
:103AC00011448860BDE8F0812DE9F04705460E46B7
:103AD000E81D20F0070726F0070800BF01F028FEC8
:103AE0008246FFF7ABFA80B1DC49DDA0FFF75AFE52
:103AF0004FF00009BE23D94AE2A1BFA0FFF752FE52
:103B000000BFB9F1000FFCD000BF504601F014FE19
:103B100000BFB8F1200F09D9A8F12000B84205D3A1
:103B2000A8EB07002038D849086006E0324629464D
:103B3000D6A0FFF737FEBDE8F087A548076000BFB5
:103B400000BF04684FF4F5502080CF480068103063
:103B500060600020A06060809D496068096808443A
:103B6000AD4908604FF4F550096808800120AA4962
:103B700009684880C44800681030A749096848604F
:103B8000C14800681030A4490968886000230122F8
:103B9000CDA1CF48FDF782FD8D480068AE49086091
:103BA00000BFC8E72DE9F047054600BF01F0C0FDA2
:103BB0008246FFF743FA80B1C649A9A0FFF7F2FD9C
:103BC0004FF00009FB23C34AAEA18BA0FFF7EAFD2B
:103BD00000BFB9F1000FFCD000BF504601F0ACFDB2
:103BE00000BF15B90020BDE8F087E81D20F00700F0
:103BF000A84201D000BF01E000BF00BFE81D20F0D7
:103C00000705A1480068854203D900BF00BF002016
:103C1000E9E7102D00D210254FF0FF31AC48FDF739
:103C2000DAFD8D4800686A490968461A95E16848D6
:103C300000688419608800287ED106F11000616850
:103C4000081AA84278D306F110006168091A05F134
:103C5000200081422DD306F1100000EB05085C48DE
:103C6000006800EB08070020788060687860BE601C
:103C7000C4F80480012060808348796800681030AF
:103C8000814205D05249786809680844C0F8088024
:103C90009148016805F1100008448F4908608F4879
:103CA00000680968884219D28B4800688B4908600F
:103CB00014E001206080464960680968611A401A72
:103CC000854909680844844908608448006809688F
:103CD000884203D280480068804908604FF4F5505C
:103CE00020805D48006884422CD107E05A48006873
:103CF00040683749096808445749086056480068D1
:103D0000408828B154480068434909688842EDD189
:103D10005148006840490968884213D04E480068FD
:103D2000408878B14FF000094FF4AF73694A6CA135
:103D300031A0FFF737FD00E00BE100BFB9F1000F44
:103D4000FCD000BF6248FDF7E4FD04F110002844F8
:103D50003149096888420DD94FF000094FF4B17319
:103D60005C4A694924A0FFF71DFD00BFB9F1000FAF
:103D7000FCD000BF14F0070F0ED04FF0000940F246
:103D80006313544A604948311BA0FFF70BFD00BF85
:103D9000B9F1000FFCD000BF14F0070F0DD04FF0A9
:103DA00000094FF4B2734B4A58A113A0FFF7FAFC75
:103DB00000BFB9F1000FFCD000BF00BF00BF00BFC3
:103DC00001480068BAE000004000FF1F4400FF1FE8
:103DD0004800FF1F43B000002872745F75696E745D
:103DE000385F74202A296D656D203E3D206865612D
:103DF000705F70747200000028257329206173734E
:103E0000657274206661696C656420617420257335
:103E10003A2564200A0000004C00FF1F2872745FDE
:103E200075696E74385F74202A296D656D203C2099
:103E30002872745F75696E74385F74202A2968650A
:103E400061705F656E6400006D656D2D3E75736514
:103E500064203D3D203000005000FF1F4EB00000A8
:103E600046756E6374696F6E5B25735D2073686160
:103E70006C6C206E6F74207573656420696E2049C8
:103E800053520A00300000005400FF1F6D656D2082
:103E9000696E69742C206572726F72206265676941
:103EA0006E206164647265737320307825782C20ED
:103EB000616E6420656E6420616464726573732052
:103EC000307825780A000000686561700000000005
:103ED000C807FF1F62B000005800FF1F5C00FF1FF3
:103EE00028286C66726565203D3D20686561705FBD
:103EF000656E6429207C7C2028216C667265652DA6
:103F00003E757365642929008CB00000282828724A
:103F1000745F75696E7433325F74296D656D292025
:103F200026202852545F414C49474E5F53495A4519
:103F30002D312929203D3D203000000028B129469F
:103F400004F11000D54A1268904700BF04F1100038
:103F500049E6D348006830444668D2480068401BB0
:103F6000B0423FF664AED048FDF7D3FC00203AE6FD
:103F70002DE9F041054600BF01F0DAFB0746FFF7E7
:103F80005DF890B1C949AFF22810FFF70BFC00268D
:103F90004FF4FE73C54AAFF21411AFF2A410FFF74D
:103FA00001FC00BF002EFDD000BF384601F0C4FB6D
:103FB00000BF0DB9BDE8F08115F0070F0CD0002649
:103FC0004FF40073B94ABAA1AFF2D410FFF7EAFB7D
:103FD00000BF002EFDD000BFB1480068854203D36A
:103FE000BF48006885420CD3002640F20123AF4A47
:103FF000BC49AFF2FC10FFF7D5FB00BF002EFDD08F
:1040000000BF00BFB848006818B12846B649096823
:10401000884700BFA2480068854203D3B0480068C3
:10402000854202D300BF00BFC4E7A5F1100400BF62
:1040300000BF4FF0FF319C48FDF7CDFB608860B9B1
:10404000002640F21B23994AA8A1AFF25420FFF7A3
:10405000A9FB00BF002EFDD000BF2088B0F5F55FA2
:104060000CD000264FF40773904AA3A1AFF278203A
:10407000FFF798FB00BF002EFDD000BF002060803E
:104080002080A4480068844201D2A2480460844988
:1040900060680968611A401A9F490968081A9E49B0
:1040A00008602046FFF7ACFC7F48FDF732FC00BFFC
:1040B00080E72DE9FC5F06460C4600BF01F038FBA7
:1040C0000190FEF7BBFFA0B19449AFF26C20FFF75F
:1040D00069FB002000904FF4C473904AAFF25C215A
:1040E000AFF2EC20FFF75EFB00BF00980028FCD089
:1040F00000BF019801F020FB00BFE01D20F0070485
:1041000068480068844204D900BF00BF0020BDE8B1
:10411000FC9F1EB92046FFF745FDF8E74FF0FF3141
:104120006148FDF758FB5E480068864203D36C483F
:104130000068864204D35C48FDF7EBFB3046E6E7B7
:10414000A6F1100856480068A8EB0009D8F804004A
:10415000A0EB0900A0F11007A74204D15248FDF7D7
:10416000D8FB3046D3E704F11C00B8422DD2381BEF
:1041700069490968081A6849086009F1100000EBEC
:10418000040A4748006800EB0A054FF4F550288000
:1041900000206880D8F804006860C5F80890C8F866
:1041A00004A04048696800681030814205D03C494D
:1041B000686809680844C0F808A02846FFF720FC92
:1041C0003948FDF7A6FB3046A1E73748FDF7A1FBCC
:1041D0002046FFF7E7FC8346BBF1000F0CD0A74257
:1041E00001D2384600E02046024631465846FEF7E6
:1041F00080FF3046FFF7BCFE584688E72DE9F041C6
:1042000004460D4600BF01F093FA8046FEF716FF04
:1042100090B14349AFF2B830FFF7C4FA002740F23B
:10422000E5133F4AAFF2A431AFF23440FFF7BAFAD8
:1042300000BF002FFDD000BF404601F07DFA00BF57
:1042400004FB05F0FFF7AEFC06462EB104FB05F2B9
:1042500000213046FEF729FF3046BDE8F08110B15D
:10426000104B1B68036011B12B4B1B680B6012B124
:104270002C4B1B681360704710B50A4801682AA0D0
:10428000FFF790FA244801682CA0FFF78BFA254825
:1042900001682FA0FFF786FA10BD00004000FF1F45
:1042A0004800FF1F5400FF1FC807FF1F81B0000018
:1042B00028282872745F75696E7433325F742972AE
:1042C0006D656D292026202852545F414C49474E88
:1042D0005F53495A452D312929203D3D20300000AA
:1042E0004C00FF1F20B100004400FF1F6D656D2DC5
:1042F0003E757365640000006D656D2D3E6D6167F0
:104300006963203D3D20484541505F4D4147494349
:10431000000000005000FF1F5800FF1F6CB000009D
:1043200077B000005C00FF1F746F74616C206D65D6
:104330006D6F72793A2025640A0000007573656418
:10434000206D656D6F7279203A2025640A000000A7
:104350006D6178696D756D20616C6C6F63617465FA
:1043600064206D656D6F72793A2025640A00000043
:104370000268516002680A60016048607047D0E9D5
:1043800000215160D0E90012116040600060704768
:1043900095490860704795490860704794490860DE
:1043A00070479449086070479349086070477047A8
:1043B0000146924800EB011070472DE9F041044698
:1043C0000D4616468D4800EB051745F0800020721B
:1043D000082231462046FEF73AFF00BF82480068B7
:1043E00018B1204680490968884700BF01F0A0F94C
:1043F000804604F10C01381DFFF7BAFF404601F07A
:104400009BF9BDE8F08170B5044654B90025FB2343
:104410007B4A7CA180A0FFF7C5F900BF002DFDD02D
:1044200000BF00BF7148006818B120466F49096895
:10443000884700BF01F07CF9064604F10C00FFF745
:104440009EFF304601F078F970BD2DE9F047054632
:104450000F4600BF01F06CF98246FEF7EFFD88B110
:10446000754976A0FFF79EF94FF000084FF48C7362
:10447000714A7BA168A0FFF795F900BFB8F1000F62
:10448000FCD000BF504601F057F900BF5B4800EB7D
:104490000516F068FFF786FB044614B90020BDE856
:1044A000F087257200206072082239462046FEF708
:1044B000CEFE00BF4C48006818B120464A49096842
:1044C000884700BF01F034F9814604F10C01301D2A
:1044D000FFF74EFF484601F02FF92046DFE770B5A1
:1044E00004465CB9002540F259135E4A45A14AA032
:1044F000FFF758F900BF002DFDD000BF207A10F063
:10450000800F0BD000254FF4AD73564A56A142A040
:10451000FFF748F900BF002DFDD000BF00BF3348B2
:10452000006818B1204631490968884700BF01F08A
:10453000FFF8064604F10C00FFF721FF304601F0BA
:10454000FBF82046FFF714FD70BD70B504465CB95A
:1045500000254FF4BF734F4A2AA12FA0FFF722F97D
:1045600000BF002DFDD000BF207A10F0800F01D0D9
:10457000012070BD0020FCE72DE9F04705460E46FE
:104580000DB1092E02DD0020BDE8F0874248007819
:1045900068B14FF0000940F29F13404A30A11EA0BD
:1045A000FFF700F900BFB9F1000FFCD000BF00F029
:1045B0007EF9124800EB06177C680DE00C20A4EB96
:1045C0000008082229464046FEF75BFE18B900F0B5
:1045D0007CF94046D8E72468381D8442EED100F0CB
:1045E00074F90020D0E70000F000FF1FF400FF1F67
:1045F000F800FF1FFC00FF1F0001FF1F6000FF1FEE
:104600007CB100006F626A65637420213D205254C2
:104610005F4E554C4C0000002825732920617373B0
:10462000657274206661696C65642061742025730D
:104630003A2564200A0000008DB1000046756E63C3
:1046400074696F6E5B25735D207368616C6C206E9E
:104650006F74207573656420696E204953520A0097
:1046600030000000A0B1000021286F626A65637409
:104670002D3E7479706520262052545F4F626A6522
:1046800063745F436C6173735F537461746963290E
:1046900000000000B1B100003400FF1FCBB10000EA
:1046A0009B490860704770B5044654B900255A23E9
:1046B000984A99A19DA0FFF775F800BF002DFDD085
:1046C00000BFA16AE069884205D9A18DA06A0844AB
:1046D000E16988420CD221469CA0FFF763F801F003
:1046E000FDF801F025F8054600BF002DFDD108E0DA
:1046F000A06A2030E169814203D821469AA0FFF7E1
:1047000051F870BD10B50020A549088000BF00BF5A
:10471000002405E0A34901EBC40000F0F5F8641C97
:10472000202CF7DB1F20A049087000209F4908605B
:104730009F4908609F4800F0E7F810BD70B59C489D
:104740000068FFF7E5F8451E964850F8351014202C
:104750000C1A9648046004F11C0001F01EF870BDAC
:104760002DE9F04100F0E4FF07468D48008800285D
:1047700034D18F480068FFF7CBF8461E894850F8BF
:10478000361014200C1A89480068844225D08649C6
:104790000E7086480568046000BF5D48006820B15F
:1047A000214628465A4A1268904700BF00BF00BF02
:1047B0002046FFF778FF8048007830B904F11C01EB
:1047C00005F11C0000F0BBFF07E000BF00BF04F1D3
:1047D0001C0105F11C0000F0B2FF00BF384600F0DC
:1047E000ABFFBDE8F08170B504465CB9002540F22E
:1047F0000F13724A48A14DA0FEF7D4FF00BF002D51
:10480000FDD000BF00F094FF0646012084F834007C
:1048100094F83520634B03EBC20004F114014268A5
:10482000116042684A604160086000BF00BF00BF7D
:104830005F49A06B096808435D490860304600F095
:104840007BFF70BD70B504465CB9002540F23D1396
:104850005B4A31A135A0FEF7A5FF00BF002DFDD0BA
:1048600000BF00F065FF064600BF00BF04F1140062
:10487000D0E900215160D0E9001211604060006071
:1048800000BF94F83510474A02EBC100016881422D
:1048900001D1012100E0002129B14548A16B006848
:1048A000884343490860304600F046FF70BD10B5AC
:1048B00000F03EFF04463A480088401C00B23849E8
:1048C0000880204600F038FF10BD10B500F030FF22
:1048D000044633480088401E00B23149088008462B
:1048E000B0F90000002807DC00200880204600F016
:1048F00023FFFFF735FF02E0204600F01DFF10BD4B
:104900002748008880B27047406000607047000010
:104910001C01FF1FDAB10000746872656164202118
:104920003D2052545F4E554C4C0000002825732901
:1049300020617373657274206661696C65642061BF
:10494000742025733A2564200A000000746872659B
:1049500061643A257320737461636B206F766572AE
:10496000666C6F770A0000007761726E696E673A55
:1049700020257320737461636B20697320636C6FEF
:10498000736520746F20656E64206F662073746198
:10499000636B20616464726573732E0A000000000B
:1049A0000401FF1FE807FF1F0C01FF1F0801FF1F85
:1049B0001001FF1F1401FF1F3400FF1FF4B100009E
:1049C0000EB200000268516002680A60016048602F
:1049D0007047D0E900215160D0E9001211604060B9
:1049E0000060704770B5FE48046800F0A1FE0546FF
:1049F0002046FFF727FF042084F8340004F14C0020
:104A000000F0BAFB2046FFF7A0FD012805D1A06FFA
:104A100018B92046FFF7F7FC04E004F11401F1484F
:104A2000FFF7D0FF284600F087FEFFF799FE70BD24
:104A300070B505462C465CB9002640F28323EA4A4D
:104A4000EAA1EFA0FEF7AEFE00BF002EFDD000BF32
:104A500094F8340002280BD000264FF42173E24A68
:104A6000EFA1E7A0FEF79EFE00BF002EFDD000BF25
:104A70006FF00100206304F11400FFF7AAFF204645
:104A8000FFF7B1FEFFF76CFE70BD2DE9FC5F044639
:104A900016461F46DDE90C9ADDE90E5804F11400B4
:104AA0004060006000BF26626762C4F82890A4F8E6
:104AB0002CA0A28D2321A06AFEF7F7FAB4F82CC02F
:104AC000A36A63441A1FDF4BD4E9080100F054FDC8
:104AD000E061202D0CDB4FF0000B6E23DA4ADBA1E6
:104AE000C7A0FEF75FFE00BFBBF1000FFCD000BF08
:104AF00004F13004A5716571C4F81480C4F81880FD
:104B00004FF0000020602071A064E064A4F1300444
:104B100000902346AFF2E7022146019004F14C00D9
:104B200000F005FB0020BDE8FC9F2DE9FF4F85B09C
:104B300004460D46174612AE96E8400764B94FF09A
:104B4000000BA823CA4AA9A1ADA0FEF72BFE00BF07
:104B5000BBF1000FFCD000BF66B94FF0000BA923DA
:104B6000C34AC4A1A6A0FEF71DFE00BFBBF1000F03
:104B7000FCD000BF2A4600212046FFF71EFC8DE82E
:104B800040073A4629462046089BFFF77EFF09B0BA
:104B9000BDE8F08F92480068704770B504465CB974
:104BA00000254FF41673B94A90A195A0FEF7FAFDBF
:104BB00000BF002DFDD000BF00BF00BF94F834003F
:104BC000022804D000BF00BF4FF0FF3070BD00F0DE
:104BD000AFFD064604F11400FFF7FBFE04F14C00A4
:104BE00000F0BAFB304600F0A7FD2046FFF7FBFDC2
:104BF0000020EBE770B5044654B90025CE23A44A43
:104C00007AA17FA0FEF7CEFD00BF002DFDD000BF32
:104C100094F8340050B10025CF239D4A9DA178A07F
:104C2000FEF7C0FD00BF002DFDD000BF04F134042D
:104C3000A078607061784FF0010000FA01F06060C8
:104C4000A4F1340400BF00BF4FF0020084F8340028
:104C50002046FFF7A2FFFFF79DFF08B1FFF780FD99
:104C6000002070BD70B5044654B90025FA23914A5E
:104C70005EA163A0FEF796FD00BF002DFDD000BF32
:104C80002046FFF7DFFD04F14C0000F075FA042028
:104C900084F834002046FFF7B6FBA06F50B100F057
:104CA00047FD064604F114014E48FFF78BFE3046DF
:104CB00000F042FD002070BD2DE9FF5F06460F4663
:104CC00090461D46DDE90EAB31460020FFF7BDFBE7
:104CD0008146B9F1000F03D1002004B0BDE8F09F78
:104CE0002846FEF75FFF044624B94846FFF7F7FB66
:104CF0000020F2E743463A46314648468DE8300CFC
:104D0000FFF7C3FE4846E8E770B504465CB90025E6
:104D100040F25913684A35A139A0FEF743FD00BFA0
:104D2000002DFDD000BF2046FFF78CFD04F14C00A4
:104D300000F022FA042084F8340000F0F9FC064662
:104D400004F114012748FFF73DFE304600F0F4FC63
:104D5000002070BD70B500F0EBFC054620480468EB
:104D600094F8340001281CD1D4E90510814218D0F0
:104D700004F11400FFF72DFE94F835204F4B03EBA0
:104D8000C20004F114014268116042684A60416047
:104D9000086000BF284600F0CFFCFFF7E1FC0020D0
:104DA00070BD284600F0C8FC0020F9E770B5044645
:104DB0005CB9002540F22F23414A0CA110A0FEF758
:104DC000F1FC00BF002DFDD000BF00BF00BF94F874
:104DD0003400012877D000BF00BF4FF0FF3070BD16
:104DE0000801FF1F1401FF1FC0B200007468726544
:104DF000616420213D2052545F4E554C4C00000010
:104E00002825732920617373657274206661696C4B
:104E100065642061742025733A2564200A0000002F
:104E20007468726561642D3E73746174203D3D2029
:104E300052545F5448524541445F53555350454E78
:104E400044000000E549000028B200007072696F5C
:104E500072697479203C2052545F54485245414451
:104E60005F5052494F524954595F4D41580000001C
:104E700038B20000737461636B5F73746172742085
:104E8000213D2052545F4E554C4C0000AFB2000003
:104E900047B200007468726561642D3E737461747A
:104EA000203D3D2052545F5448524541445F494E95
:104EB0004954000059B200006AB20000E807FF1F21
:104EC0009DB20000FFE700F033FC0646022084F8A4
:104ED00034002046FFF7B6FC04F14C0000F03CFA29
:104EE000304600F029FC002070BDF1B500F020FC38
:104EF00005464E4804686CB900264FF4D7734C4AF7
:104F0000AFF21811AFF20810FEF74CFC00BF002EF4
:104F1000FDD000BF2046FFF749FF6A46002104F19B
:104F20004C0000F047FA04F14C0000F079F92846F3
:104F300000F002FCFFF714FC206B801C00D1206302
:104F40000020F8BD10B504462046FFF7CEFF10BD87
:104F50002DE9F04104460E4615466CB9002740F293
:104F6000E113344AAFF27C11AFF26C10FEF71AFC79
:104F700000BF002FFDD000BF2EB3012E28D0022E7F
:104F80002AD100F0D5FB804694F8340001280ED1D8
:104F90002046FFF757FC287884F8350094F8351040
:104FA00001208840A0632046FFF71DFC07E0287819
:104FB00084F8350094F8351001208840A0634046FD
:104FC00000F0BAFB09E02046FFF714FEBDE8F081CF
:104FD0002046FFF799FEF9E700BF00BF0020F5E784
:104FE0002DE9F0410646FFF7D5FD08B1FFF75FFC5C
:104FF000114D6C6810E00C20271A08223146384603
:10500000FEF73FF938B9FFF7C5FD08B1FFF75DFCC2
:105010003846BDE8F0812468281D8442EBD1FFF7B3
:10502000B9FD08B1FFF751FC0020F2E70801FF1FAE
:105030007BB200008BB200006000FF1F026851606D
:1050400002680A60016048607047FD490860704767
:105050002DE9F04704460E4617469846DDF82090A5
:1050600084F80990607A20F001006072E66127629E
:105070000020A062C4F82480002506E004F1140199
:1050800001EBC50000F069FA6D1C012DF6DBBDE8EF
:10509000F08770B50446204600F062FA10B14FF078
:1050A000FF3070BD142021680D1AA86AF9E710B509
:1050B0000246002001460EE002F1140303EBC1009A
:1050C000D0E900436360D0E90034236040600060B1
:1050D00000BF481C01460129EEDB10BD70B5054636
:1050E0000026002408E005F1140101EBC40000F0E3
:1050F00037FA00B9761C641C012CF4DB304670BD15
:105100002DE9F041044625680AE0A5F11406304671
:10511000FFF7E4FF07463946CAA0FEF743FB2D68B8
:10512000A542F2D1C8A0FEF73DFBBDE8F0812DE914
:10513000F84F04460D4616461F46DDE90A8964B954
:105140004FF0000AB823C14AC1A1C6A0FEF72AFB4E
:1051500000BFBAF1000FFCD000BF2A46082120464C
:10516000FFF72BF943463A4631462046CDF80090EA
:10517000FFF76EFFBDE8F88F70B5044654B90025FF
:10518000CD23C04AB2A1B7A0FEF70CFB00BF002D93
:10519000FDD000BF00F0CCFA06462046FFF787FF9F
:1051A000304600F0C9FA2046FFF72DF9002070BD07
:1051B0002DE9F84304460E4617469846DDF8209040
:1051C00021460820FFF741F9054615B90020BDE842
:1051D000F88343463A4631462846CDF80090FFF71B
:1051E00037FF2846F3E770B504465CB900254FF455
:1051F0008573A54A96A19BA0FEF7D4FA00BF002DA7
:10520000FDD000BF00F094FA06462046FFF74FFF9E
:10521000304600F091FA2046FFF761F9002070BD9A
:105220002DE9F84305466DB94FF000084FF4967329
:10523000964A87A18BA0FEF7B5FA00BFB8F1000F20
:10524000FCD000BF687A10F0010F03D04FF0FF30A0
:10525000BDE8F88300BF8E48006818B128468C4925
:105260000968884700BF6FF00041686A88420DD323
:105270004FF000084FF49B73844A86A179A0FEF793
:1052800091FA00BFB8F1000FFCD000BFFBF7C3FEDE
:10529000696A0844A86200F04BFA8146864E00967F
:1052A00000242AE019E05DF824201168142202EBA2
:1052B000C402881A826AAB6AD21A00D108E0826AF4
:1052C000AB6AD21A6FF000439A4200D20CE000BFE2
:1052D0005DF8240000684DF824005DF8240006EB1A
:1052E000C40149688842DED100BF2CB15DF82400BA
:1052F0000830611C4DF82100641C012CD2DB6F4882
:105300000068401C6D4908600846076805F11401F3
:105310000098FFF793FE022412E017F0030F0CD160
:10532000C4F1010305F1140202EBC301C4F101024F
:105330005DF82200FFF782FE00E003E0BF08641C76
:10534000012CEADD00BF687A40F00100687248462F
:1053500000F0F2F900207BE770B504465CB9002547
:105360004FF4CF73564A3AA13EA0FEF71BFA00BF96
:10537000002DFDD000BF607A10F0010F02D14FF078
:10538000FF3070BD00BF4F48006818B120464D493E
:105390000968884700BF00F0CBF906462046FFF7B2
:1053A00086FE304600F0C8F9607A20F00100607295
:1053B0000020E6E72DE9F04104460E4615465CB9AB
:1053C000002740F2BF13404A21A126A0FEF7EAF9C8
:1053D00000BF002FFDD000BF4EB1012E04D0022E21
:1053E00008D0032E10D10AE0606A28600CE028681B
:1053F000606209E0607A20F00200607204E0607A86
:1054000040F00200607200BF00BF0020BDE8F081E4
:1054100070B500BF00BFFBF7FEFD054600F088F940
:1054200006467BE02448016814200C1AA06A281A5A
:105430006FF00041884270D200BF0148006845E02B
:105440002C01FF1F256400000A000000D2B20000FA
:1054500074696D657220213D2052545F4E554C4C4D
:105460000000000028257329206173736572742081
:105470006661696C65642061742025733A25642037
:105480000A000000E0B20000F0B2000000B300002B
:10549000FC00FF1F74696D65722D3E696E69745F53
:1054A0007469636B203C2052545F5449434B5F4DF9
:1054B0004158202F203200002401FF1F2001FF1F30
:1054C0000FB300000001FF1F1DB3000018B12046FC
:1054D00027490968884700BF2046FFF7E8FDD4E95F
:1054E00007108847FBF797FD054600BF00BF607AAD
:1054F00010F0020F0BD0607A10F0010F07D0607A25
:1055000020F0010060722046FFF78AFE06E0607A14
:1055100020F00100607201E0FFE705E0154800F0AF
:105520001FF800283FF47EAF00BF304600F004F9BA
:1055300000BF00BF70BD10B50E48FFF7AAFD10BD3B
:1055400010B5002405E00B4901EBC40000F005F89C
:10555000641C002CF7D010BD70474060006070479D
:1055600001460868884201D1012070470020FCE70D
:105570002C01FF1F2401FF1FF0B504460D461646FF
:10558000301D20F0070040380146002203E0314F73
:1055900041F82270521C102AF9D30D624FF0000C12
:1055A000C1F824C0C1F828C0C1F82CC0C1F830C06F
:1055B0004B638C634FF0807CC1F83CC0F0BD264942
:1055C0000860704770B504462348006838B120462B
:1055D000214909688847054605B970BD00BF1FA06D
:1055E000E169FEF7DFF821A0A169FEF7DBF823A04F
:1055F0006169FEF7D7F825A02169FEF7D3F827A047
:10560000E168FEF7CFF829A0A168FEF7CBF82BA040
:105610006168FEF7C7F82DA02168FEF7C3F8FFF711
:10562000B9FA054629462DA0FEF7BCF800F056F958
:1056300000BFFEE710B530A0FEF7B4F80024DB236E
:10564000314A32A132A0FEF7ADF800BF002CFDD0E8
:1056500010BD0000EFBEADDE3001FF1F7073723A67
:10566000203078253038780A000000002070633A36
:10567000203078253038780A00000000206C723A1B
:10568000203078253038780A000000007231323A34
:10569000203078253038780A000000007230333A24
:1056A000203078253038780A000000007230323A15
:1056B000203078253038780A000000007230313A06
:1056C000203078253038780A000000007230303AF7
:1056D000203078253038780A000000006861726454
:1056E000206661756C74206F6E20746872656164E9
:1056F0003A2025730A00000073687574646F776E32
:105700002E2E2E0A000000002EB3000030000000F4
:105710002825732920617373657274206661696C32
:1057200065642061742025733A2564200A00000016
:10573000EFF3108072B6704780F3108870472B4AE1
:105740001368012B04D04FF001031360284A106046
:10575000284A116028484FF0805101607047EFF3EC
:10576000108272B62148016891B14FF000010160CA
:105770001F48016829B1EFF3098121E9F00F0068A2
:1057800001601C4909680968B1E8F00F81F30988D4
:1057900082F310884EF0040E7047164908601449D1
:1057A0004FF00000086011494FF0010008601348F5
:1057B0004FF47F01D0F8002041EA020101600E4859
:1057C0004FF0805101600E480068006800BF80F310
:1057D000088862B6704700BFEFF3098000B5FFF795
:1057E000F1FE5DF804EB4EF0040E70473C01FF1F24
:1057F0003401FF1F3801FF1F04ED00E020ED00E041
:1058000008ED00E0014600200A4601E01268401C55
:1058100013688B42FAD1704710B5FAA0FDF7C2FFAA
:10582000002010BD10B5FDF7EDFF002010BD2DE9E3
:10583000FC410546F848FDF7B5FFF7484C30FDF749
:10584000B1FF2E6845E00C20341A94F8353022461A
:105850000821F2A0FDF7A6FF94F83400012803D137
:10586000F2A0FDF79FFF15E094F83400022803D161
:10587000F1A0FDF797FF0DE094F8340018B9F1A0FE
:10588000FDF790FF06E094F83400042802D1F0A060
:10589000FDF788FFA76A00E07F1C38782328FBD03B
:1058A000216BA06CCDE90001A08DD4F828C0A7EB36
:1058B0000C0CA0EB0C03D4F81CC0A06AA0EB0C00ED
:1058C000B4F82CC000EB0C016246E4A0FDF76AFFBF
:1058D0003668AE42B7D10020BDE8FC8110B5E8487B
:1058E000FFF7A5FF10BD70B5044625680CE0142035
:1058F0002E1A3146E3A0FDF755FF2868A04202D0DA
:10590000E1A0FDF74FFF2D68A542F0D170BDF8B5BD
:105910000546DEA0FDF746FFE4A0FDF743FF2E6835
:1059200027E00C20341A04F1140000F0C4FC98B9EC
:1059300004F11400FFF766FF07460090A38B224690
:105940000821E2A0FDF72EFF04F11400FFF7CBFFC2
:10595000B0A0FDF727FF0BE004F11400FFF752FFA2
:1059600007460090A38B22460821DDA0FDF71AFF11
:105970003668AE42D5D10020F8BD10B5C048103011
:10598000FFF7C5FF10BDF8B50546DAA0FDF70AFF21
:10599000E1A0FDF707FF2E6821E00C20341A04F186
:1059A000140000F088FC98B904F11400FFF72AFFF6
:1059B0000746009022460821E0A0E369FDF7F2FEC9
:1059C00004F11400FFF78FFF92A0FDF7EBFE05E056
:1059D00022460821DFA0E369FDF7E4FE3668AE4207
:1059E000DBD10020F8BD10B5A5483030FFF7CBFF64
:1059F00010BDFEB50546DCA0FDF7D4FEE4A0FDF722
:105A0000D1FE2E6812E00C20341A04F11400FFF7C6
:105A1000F9FE0746E07F216A08232246CDE9010707
:105A200000911946E4A0FDF7BDFE3668AE42EAD10A
:105A30000020FEBD10B592482030FFF7DAFF10BD00
:105A40002DE9FC410546E2A0FDF7ACFEE9A0FDF71B
:105A5000A9FE2E682BE00C20341A04F1140000F08B
:105A60002AFCA8B904F11400FFF7CCFE0746208CED
:105A7000CDE90007638C22460821E7A0FDF792FEDE
:105A800004F11400FFF72FFF62A0FDF78BFE0DE07D
:105A900004F11400FFF7B6FE0746208CCDE900079D
:105AA000638C22460821E2A0FDF77CFE3668AE42F8
:105AB000D1D10020BDE8FC8110B571484030FFF71E
:105AC000BFFF10BDF8B50546DFA0FDF76BFEE6A0F1
:105AD000FDF768FE2E6827E00C20341A04F114004C
:105AE00000F0E9FB98B904F11400FFF78BFE0746BC
:105AF0000090A38C22460821E3A0FDF753FE04F199
:105B00001400FFF7F0FE43A0FDF74CFE0BE004F19C
:105B10001400FFF777FE07460090A38C2246082169
:105B2000DEA0FDF73FFE3668AE42D5D10020F8BDBD
:105B300010B553485030FFF7C5FF10BDFEB5054600
:105B4000DBA0FDF72FFEE5A0FDF72CFE2E6824E07C
:105B50000C20341A606B98B1D4E90912606BCDE95E
:105B60000012029022460821E7A0E369FDF71AFE21
:105B700004F12C00FFF7B7FE26A0FDF713FE0BE0A3
:105B8000D4E90912606BCDE9001202902246082187
:105B9000E4A0E369FDF706FE3668AE42D8D10020E6
:105BA000FEBD10B536486030FFF7C8FF10BDF8B530
:105BB0000546E3A0FDF7F6FDEBA0FDF7F3FD2E682B
:105BC00015E00C20341AA06A009022460821F1A0AA
:105BD000636AFDF7E7FD607A10F0010F03D0F3A0D0
:105BE000FDF7E0FD02E0F4A0FDF7DCFD3668AE4213
:105BF000E7D1FBF710FA07463946F3A0FDF7D2FDCF
:105C00000020F8BD48656C6C6F2052542D546872AA
:105C1000656164210A00000044B50000252D382E7E
:105C20002A732030782530327800000020726561B8
:105C300064792020000000002073757370656E6425
:105C40000000000020696E69742020200000000020
:105C500020636C6F736520200000000020307825E1
:105C60003038782030782530387820307825303832
:105C7000782030782530387820253033640A0000C9
:105C80006400FF1F257300002F00000073656D6125
:105C900070686F7265207620202073757370656E52
:105CA00064207468726561640A0000002D2D2D2D3A
:105CB0002D2D2D2D20202D2D2D202D2D2D2D2D2D3B
:105CC0002D2D2D2D2D2D2D2D0A000000252D382EAA
:105CD0002A732020253033642025643A0000000018
:105CE000252D382E2A732020253033642025640A80
:105CF000000000006576656E7420202020736574B6
:105D0000202020202020202073757370656E642071
:105D10007468726561640A002D2D2D2D2D2D2D2D99
:105D2000202D2D2D2D2D2D2D2D2D2D202D2D2D2DBD
:105D30002D2D2D2D2D2D2D2D2D2D0A00252D382EDF
:105D40002A73202030782530387820253033643A83
:105D500000000000252D382E2A73202030782530B1
:105D6000387820300A0000006D7574657820202096
:105D7000206F776E657220202020686F6C6420731E
